:1000000012C024C023C022C021C020C01FC01EC0F7
:100010001DC01CC01BC01AC019C018C017C016C014
:1000200015C014C013C011241FBECFE5D4E0DEBF3D
:10003000CDBF10E0A0E6B0E0E8E3F8E002C0059034
:100040000D92A837B107D9F7CFD0F4C3D9CF86B175
:10005000866886B908958F70806487B986B1806498
:1000600086B9349BFECF84B195B108958FE697E1B0
:100070000197F1F700C000000895CF93C82F82B315
:10008000807F9C2F92959F70892B82BB82B38F7D3E
:1000900082BB82B38F7E82BB82B3806482BBE6DF89
:1000A00082B38F7B82BBE2DF82B3807FCF70C82BAD
:1000B000C2BB82B3806482BBD9DF82B38F7B82BB39
:1000C000D5DFCF910895CF93C82F82B3807F9C2F27
:1000D00092959F70892B82BB82B38F7D82BB82B346
:1000E000806182BB82B3806482BBC0DF82B38F7BBE
:1000F00082BBBCDF82B3807FCF70C82BC2BB82B310
:10010000806482BBB3DF82B38F7B82BBAFDFCF91D2
:1001100008958FEF81BB82B38F7B82BB8DE08A9580
:10012000F1F7000083E3A9DF8DE08A95F1F7000085
:1001300082E3A3DF8DE08A95F1F7000088E29DDF7E
:100140008DE08A95F1F700008CE097DF8DE08A95CD
:10015000F1F7000081E091DF8DE08A95F1F7000072
:1001600086E08BDF8DE08A95F1F700000895CF934C
:10017000DF9300D000D0CDB7DEB790E8998390EC44
:100180009A8394E99B8394ED9C83E1E0F0E0EC0F8B
:10019000FD1FE60FF11D9081890F6FDF8DE08A95BD
:1001A000F1F700000F900F900F900F90DF91CF911B
:1001B00008950F931F93CF938C01C0E002C083DF9B
:1001C000CF5FF801EC0FF11D80818111F8CFCF9145
:1001D0001F910F910895CF93DF93EA01C8DFCE01FD
:1001E000E8DFDF91CF91089584B38C7F84BB2FDF4C
:1001F00090DF80E030DF8C0181E02DDFEC0140E614
:1002000050E060E080E0E7DFC80110D0D2DF88E690
:1002100090E0CFDF4CE650E061E080E0DCDFCE0133
:1002200005D0C7DF88E690E0C4DFE3CF0F931F93CC
:10023000CF93DF93CDB7DEB7CF5FD1090FB6F89478
:10024000DEBF0FBECDBF9F938F9384E790E09F9357
:100250008F938E010F5F1F4F1F930F9313D00F903B
:100260000F900F900F900F900F90C801C150DF4F6B
:100270000FB6F894DEBF0FBECDBFDF91CF911F91B7
:100280000F910895AEE0B0E0E7E4F1E0AAC20D8975
:100290001E8986E08C831A8309838FEF9FE79E83F4
:1002A0008D83AE01475E5F4F6F89788DCE010196D9
:1002B00008D0EF81F885E00FF11F10822E96E4E060
:1002C000ACC2ABE0B0E0E6E6F1E07DC26C017B01E0
:1002D0008A01FC0117821682838181FFBFC1CE0192
:1002E00001963C01F6019381F70193FD859193FFFF
:1002F00081917F01882309F4ADC1853239F493FDE2
:10030000859193FF81917F01853221F4B60190E0C0
:10031000C0D1E8CF912C212C312CFFE1F315D8F07E
:100320008B3279F038F4803279F08332A1F4232DC6
:1003300020611DC08D3261F0803369F4232D21606E
:1003400016C0832D8260382EE32DE4603E2E2AC035
:10035000F32DF8601DC037FC2DC020ED280F2A308A
:1003600040F08E32B9F436FC75C1232D2064322E54
:1003700019C036FE06C08AE0989E200D1124922EE8
:1003800011C0EAE02E9E200D1124222EF32DF062E2
:100390003F2E08C08C3621F4832D8068382E02C091
:1003A000883641F4F70193FD859193FF81917F0198
:1003B0008111B3CF982F9F7D9554933028F40C5F13
:1003C0001F4F9FE399830DC0833631F0833771F05F
:1003D000833509F055C020C0F801808189830E5F04
:1003E0001F4F88248394912C530112C02801F2E0FE
:1003F0004F0E511CF801A080B18036FE03C0692D5C
:1004000070E002C06FEF7FEFC50138D14C0182016F
:10041000F32DFF773F2E15C0280122E0420E511C1C
:10042000F801A080B18036FE03C0692D70E002C0E3
:100430006FEF7FEFC50117D14C01F32DF0683F2E10
:10044000820133FC19C0822D90E088169906A0F431
:10045000B60180E290E01DD12A94F5CFF50137FC7A
:10046000859137FE81915F01B60190E012D1211094
:100470002A9421E0821A91088114910479F7E1C04D
:10048000843611F0893639F5F80137FE07C06081EE
:100490007181828193810C5F1F4F08C060817181DF
:1004A000072E000C880B990B0E5F1F4FF32DFF7664
:1004B0003F2E97FF09C090958095709561957F4F6D
:1004C0008F4F9F4FF0683F2E2AE030E0A3011DD1EF
:1004D000882E861844C0853731F4232D2F7EB22E06
:1004E0002AE030E025C0932D997FB92E8F36C1F0D8
:1004F00018F4883579F0AEC0803719F0883721F0CC
:10050000A9C0E92FE061BE2EB4FE0DC0FB2DF46042
:10051000BF2E09C034FE0AC0292F2660B22E06C0A5
:1005200028E030E005C020E130E002C020E132E008
:10053000F801B7FE07C060817181828193810C5FF1
:100540001F4F06C06081718180E090E00E5F1F4FF9
:10055000A301DBD0882E8618FB2DFF773F2E36FEB9
:100560000DC0232D2E7FA22E891458F434FE0BC00B
:1005700032FC09C0832D8E7EA82E05C0B82CA32C7A
:1005800003C0B82C01C0B92CA4FE0FC0FE01E80DB9
:10059000F11D8081803321F49A2D997EA92E09C006
:1005A000A2FE06C0B394B39404C08A2D867809F0E5
:1005B000B394A3FC10C0A0FE06C0B21480F4280CB3
:1005C000922C9B180DC0B21458F4B60180E290E052
:1005D00060D0B394F8CFB21418F42B1802C0982C42
:1005E000212CA4FE0FC0B60180E390E052D0A2FE01
:1005F00016C0A1FC03C088E790E002C088E590E047
:10060000B6010CC08A2D867851F0A1FE02C08BE2A3
:1006100001C080E2A7FC8DE2B60190E03AD08914D7
:1006200030F4B60180E390E034D09A94F8CF8A9405
:10063000F301E80DF11D8081B60190E02AD0811010
:10064000F6CF222009F44ECEB60180E290E021D010
:100650002A94F7CFF6018681978102C08FEF9FEF32
:100660002B96E2E1CCC0FC01059061507040011076
:10067000D8F7809590958E0F9F1F0895FC016150CB
:10068000704001900110D8F7809590958E0F9F1FB4
:1006900008950F931F93CF93DF93FB01238121FDD7
:1006A00003C08FEF9FEF2CC022FF16C046815781F9
:1006B000248135814217530744F4A081B1819D0103
:1006C0002F5F3F4F318320838C93268137812F5FAB
:1006D0003F4F3783268314C08B01EC01FB0100845C
:1006E000F185E02D0995892BE1F6D80116968D91BB
:1006F0009C911797019617969C938E931697CE010F
:10070000DF91CF911F910F910895FA01AA27283008
:1007100051F1203181F1E8946F936E7F6E5F7F4FCE
:100720008F4F9F4FAF4FB1E03ED0B4E03CD0670F4A
:10073000781F891F9A1FA11D680F791F8A1F911D9D
:10074000A11D6A0F711D811D911DA11D20D009F4ED
:1007500068943F912AE0269F11243019305D31932F
:10076000DEF6CF010895462F4770405D4193B3E018
:100770000FD0C9F7F6CF462F4F70405D4A3318F0BF
:10078000495D31FD4052419302D0A9F7EACFB4E070
:10079000A6959795879577956795BA95C9F7009728
:1007A0006105710508959B01AC010A2E06945795C9
:1007B000479537952795BA95C9F7620F731F841F20
:1007C000951FA01D08952F923F924F925F926F92B6
:1007D0007F928F929F92AF92BF92CF92DF92EF92D1
:1007E000FF920F931F93CF93DF93CDB7DEB7CA1B52
:1007F000DB0B0FB6F894DEBF0FBECDBF09942A887D
:10080000398848885F846E847D848C849B84AA8424
:10081000B984C884DF80EE80FD800C811B81AA81B1
:10082000B981CE0FD11D0FB6F894DEBF0FBECDBF7C
:08083000ED010895F894FFCFDB
:1008380061646330203D2000202020006164633122
:08084800203D200025640000A2
:00000001FF
